{
  "contractName": "Fundraiser",
  "abi": [
    {
      "inputs": [],
      "name": "ERROR__COLLECTOR__CANT__BE__A__DONATOR",
      "type": "error"
    },
    {
      "inputs": [],
      "name": "ERROR__Donor__Not__Registered",
      "type": "error"
    },
    {
      "inputs": [],
      "name": "ERROR__INVALID__FUND__ZONE",
      "type": "error"
    },
    {
      "inputs": [],
      "name": "ERROR__NOT__ENOUGH__BALANCE",
      "type": "error"
    },
    {
      "inputs": [],
      "name": "ERROR__NOT__ENOUGH__SENT__VALUE",
      "type": "error"
    },
    {
      "inputs": [],
      "name": "accountNo",
      "outputs": [
        {
          "internalType": "uint256",
          "name": "",
          "type": "uint256"
        }
      ],
      "stateMutability": "view",
      "type": "function",
      "constant": true
    },
    {
      "inputs": [],
      "name": "chittagongNorthCollector",
      "outputs": [
        {
          "internalType": "address",
          "name": "",
          "type": "address"
        }
      ],
      "stateMutability": "view",
      "type": "function",
      "constant": true
    },
    {
      "inputs": [],
      "name": "chittagongSouthCollector",
      "outputs": [
        {
          "internalType": "address",
          "name": "",
          "type": "address"
        }
      ],
      "stateMutability": "view",
      "type": "function",
      "constant": true
    },
    {
      "inputs": [],
      "name": "sylhetCollector",
      "outputs": [
        {
          "internalType": "address",
          "name": "",
          "type": "address"
        }
      ],
      "stateMutability": "view",
      "type": "function",
      "constant": true
    },
    {
      "inputs": [
        {
          "internalType": "string",
          "name": "_name",
          "type": "string"
        },
        {
          "internalType": "string",
          "name": "_mobileNum",
          "type": "string"
        }
      ],
      "name": "registerDonor",
      "outputs": [],
      "stateMutability": "nonpayable",
      "type": "function"
    },
    {
      "inputs": [
        {
          "internalType": "string",
          "name": "_mobile",
          "type": "string"
        },
        {
          "internalType": "string",
          "name": "_fundZone",
          "type": "string"
        }
      ],
      "name": "donate",
      "outputs": [],
      "stateMutability": "payable",
      "type": "function",
      "payable": true
    },
    {
      "inputs": [
        {
          "internalType": "address",
          "name": "_add",
          "type": "address"
        }
      ],
      "name": "getDonor",
      "outputs": [
        {
          "internalType": "string",
          "name": "",
          "type": "string"
        },
        {
          "internalType": "string",
          "name": "",
          "type": "string"
        }
      ],
      "stateMutability": "view",
      "type": "function",
      "constant": true
    },
    {
      "inputs": [],
      "name": "getDonationAmountSylhet",
      "outputs": [
        {
          "internalType": "uint256",
          "name": "",
          "type": "uint256"
        }
      ],
      "stateMutability": "view",
      "type": "function",
      "constant": true
    },
    {
      "inputs": [],
      "name": "getDonationAmountChittagongSouth",
      "outputs": [
        {
          "internalType": "uint256",
          "name": "",
          "type": "uint256"
        }
      ],
      "stateMutability": "view",
      "type": "function",
      "constant": true
    },
    {
      "inputs": [],
      "name": "getDonationAmountChittagongNorth",
      "outputs": [
        {
          "internalType": "uint256",
          "name": "",
          "type": "uint256"
        }
      ],
      "stateMutability": "view",
      "type": "function",
      "constant": true
    },
    {
      "inputs": [],
      "name": "getTotalDonation",
      "outputs": [
        {
          "internalType": "uint256",
          "name": "",
          "type": "uint256"
        }
      ],
      "stateMutability": "view",
      "type": "function",
      "constant": true
    }
  ],
  "bytecode": "0x6080604052731375b15e8960f6be79a4204ddfc1cb3bd5d00d096000806101000a81548173ffffffffffffffffffffffffffffffffffffffff021916908373ffffffffffffffffffffffffffffffffffffffff16021790555073090920cd992e1f349ea00bbf59e9d11eea492494600160006101000a81548173ffffffffffffffffffffffffffffffffffffffff021916908373ffffffffffffffffffffffffffffffffffffffff16021790555073c23396c0648ec35ab16efba2fd2aa0b839966556600260006101000a81548173ffffffffffffffffffffffffffffffffffffffff021916908373ffffffffffffffffffffffffffffffffffffffff160217905550600060035560008054906101000a900473ffffffffffffffffffffffffffffffffffffffff1673ffffffffffffffffffffffffffffffffffffffff1631600455600160009054906101000a900473ffffffffffffffffffffffffffffffffffffffff1673ffffffffffffffffffffffffffffffffffffffff1631600555600260009054906101000a900473ffffffffffffffffffffffffffffffffffffffff1673ffffffffffffffffffffffffffffffffffffffff16316006553480156101c857600080fd5b5061139a806101d86000396000f3fe60806040526004361061009c5760003560e01c80636eedb80e116100645780636eedb80e1461016957806396c59043146101945780639dfa7f11146101d2578063a167b2a0146101fd578063a577589e14610228578063f33eb416146102515761009c565b80630d1e16db146100a15780631653441c146100cc57806333d05ee4146100e857806350531f091461011357806356e23eb11461013e575b600080fd5b3480156100ad57600080fd5b506100b661027c565b6040516100c39190610d2c565b60405180910390f35b6100e660048036038101906100e19190610ea1565b6102c8565b005b3480156100f457600080fd5b506100fd610633565b60405161010a9190610f5a565b60405180910390f35b34801561011f57600080fd5b50610128610657565b6040516101359190610f5a565b60405180910390f35b34801561014a57600080fd5b5061015361067d565b6040516101609190610d2c565b60405180910390f35b34801561017557600080fd5b5061017e61076b565b60405161018b9190610d2c565b60405180910390f35b3480156101a057600080fd5b506101bb60048036038101906101b69190610fa1565b6107b9565b6040516101c9929190611056565b60405180910390f35b3480156101de57600080fd5b506101e7610961565b6040516101f49190610d2c565b60405180910390f35b34801561020957600080fd5b50610212610967565b60405161021f9190610f5a565b60405180910390f35b34801561023457600080fd5b5061024f600480360381019061024a9190610ea1565b61098d565b005b34801561025d57600080fd5b50610266610c01565b6040516102739190610d2c565b60405180910390f35b600060045460008054906101000a900473ffffffffffffffffffffffffffffffffffffffff1673ffffffffffffffffffffffffffffffffffffffff16316102c391906110bc565b905090565b60006007836040516102da919061112c565b90815260200160405180910390206000015411156105fd5760003411156105c65760003373ffffffffffffffffffffffffffffffffffffffff1631111561058f5760405160200161032a9061118f565b6040516020818303038152906040528051906020012081604051602001610351919061112c565b60405160208183030381529060405280519060200120036103d85760008054906101000a900473ffffffffffffffffffffffffffffffffffffffff1673ffffffffffffffffffffffffffffffffffffffff166108fc349081150290604051600060405180830381858888f193505050501580156103d2573d6000803e3d6000fd5b5061058a565b6040516020016103e7906111f0565b604051602081830303815290604052805190602001208160405160200161040e919061112c565b604051602081830303815290604052805190602001200361049757600160009054906101000a900473ffffffffffffffffffffffffffffffffffffffff1673ffffffffffffffffffffffffffffffffffffffff166108fc349081150290604051600060405180830381858888f19350505050158015610491573d6000803e3d6000fd5b50610589565b6040516020016104a690611251565b60405160208183030381529060405280519060200120816040516020016104cd919061112c565b604051602081830303815290604052805190602001200361055657600260009054906101000a900473ffffffffffffffffffffffffffffffffffffffff1673ffffffffffffffffffffffffffffffffffffffff166108fc349081150290604051600060405180830381858888f19350505050158015610550573d6000803e3d6000fd5b50610588565b6040517f876d643d00000000000000000000000000000000000000000000000000000000815260040160405180910390fd5b5b5b6105c1565b6040517f01ea5e6500000000000000000000000000000000000000000000000000000000815260040160405180910390fd5b6105f8565b6040517faf5fae8400000000000000000000000000000000000000000000000000000000815260040160405180910390fd5b61062f565b6040517f6865801d00000000000000000000000000000000000000000000000000000000815260040160405180910390fd5b5050565b60008054906101000a900473ffffffffffffffffffffffffffffffffffffffff1681565b600260009054906101000a900473ffffffffffffffffffffffffffffffffffffffff1681565b6000600654600554600454600260009054906101000a900473ffffffffffffffffffffffffffffffffffffffff1673ffffffffffffffffffffffffffffffffffffffff1631600160009054906101000a900473ffffffffffffffffffffffffffffffffffffffff1673ffffffffffffffffffffffffffffffffffffffff163160008054906101000a900473ffffffffffffffffffffffffffffffffffffffff1673ffffffffffffffffffffffffffffffffffffffff163161073e9190611266565b6107489190611266565b61075291906110bc565b61075c91906110bc565b61076691906110bc565b905090565b6000600654600260009054906101000a900473ffffffffffffffffffffffffffffffffffffffff1673ffffffffffffffffffffffffffffffffffffffff16316107b491906110bc565b905090565b606080600860008473ffffffffffffffffffffffffffffffffffffffff1673ffffffffffffffffffffffffffffffffffffffff168152602001908152602001600020600101600860008573ffffffffffffffffffffffffffffffffffffffff1673ffffffffffffffffffffffffffffffffffffffff16815260200190815260200160002060020181805461084c906112eb565b80601f0160208091040260200160405190810160405280929190818152602001828054610878906112eb565b80156108c55780601f1061089a576101008083540402835291602001916108c5565b820191906000526020600020905b8154815290600101906020018083116108a857829003601f168201915b505050505091508080546108d8906112eb565b80601f0160208091040260200160405190810160405280929190818152602001828054610904906112eb565b80156109515780601f1061092657610100808354040283529160200191610951565b820191906000526020600020905b81548152906001019060200180831161093457829003601f168201915b5050505050905091509150915091565b60035481565b600160009054906101000a900473ffffffffffffffffffffffffffffffffffffffff1681565b600160009054906101000a900473ffffffffffffffffffffffffffffffffffffffff1673ffffffffffffffffffffffffffffffffffffffff163373ffffffffffffffffffffffffffffffffffffffff1614158015610a395750600260009054906101000a900473ffffffffffffffffffffffffffffffffffffffff1673ffffffffffffffffffffffffffffffffffffffff163373ffffffffffffffffffffffffffffffffffffffff1614155b8015610a91575060008054906101000a900473ffffffffffffffffffffffffffffffffffffffff1673ffffffffffffffffffffffffffffffffffffffff163373ffffffffffffffffffffffffffffffffffffffff1614155b15610bcb57610a9e610c4f565b82816020018190525081816040018190525060036000815480929190610ac39061131c565b91905055506003548160000181815250508060078260400151604051610ae9919061112c565b9081526020016040518091039020600082015181600001556020820151816001019080519060200190610b1d929190610c70565b506040820151816002019080519060200190610b3a929190610c70565b5090505080600860003373ffffffffffffffffffffffffffffffffffffffff1673ffffffffffffffffffffffffffffffffffffffff168152602001908152602001600020600082015181600001556020820151816001019080519060200190610ba4929190610c70565b506040820151816002019080519060200190610bc1929190610c70565b5090505050610bfd565b6040517fb8deae7300000000000000000000000000000000000000000000000000000000815260040160405180910390fd5b5050565b6000600554600160009054906101000a900473ffffffffffffffffffffffffffffffffffffffff1673ffffffffffffffffffffffffffffffffffffffff1631610c4a91906110bc565b905090565b60405180606001604052806000815260200160608152602001606081525090565b828054610c7c906112eb565b90600052602060002090601f016020900481019282610c9e5760008555610ce5565b82601f10610cb757805160ff1916838001178555610ce5565b82800160010185558215610ce5579182015b82811115610ce4578251825591602001919060010190610cc9565b5b509050610cf29190610cf6565b5090565b5b80821115610d0f576000816000905550600101610cf7565b5090565b6000819050919050565b610d2681610d13565b82525050565b6000602082019050610d416000830184610d1d565b92915050565b6000604051905090565b600080fd5b600080fd5b600080fd5b600080fd5b6000601f19601f8301169050919050565b7f4e487b7100000000000000000000000000000000000000000000000000000000600052604160045260246000fd5b610dae82610d65565b810181811067ffffffffffffffff82111715610dcd57610dcc610d76565b5b80604052505050565b6000610de0610d47565b9050610dec8282610da5565b919050565b600067ffffffffffffffff821115610e0c57610e0b610d76565b5b610e1582610d65565b9050602081019050919050565b82818337600083830152505050565b6000610e44610e3f84610df1565b610dd6565b905082815260208101848484011115610e6057610e5f610d60565b5b610e6b848285610e22565b509392505050565b600082601f830112610e8857610e87610d5b565b5b8135610e98848260208601610e31565b91505092915050565b60008060408385031215610eb857610eb7610d51565b5b600083013567ffffffffffffffff811115610ed657610ed5610d56565b5b610ee285828601610e73565b925050602083013567ffffffffffffffff811115610f0357610f02610d56565b5b610f0f85828601610e73565b9150509250929050565b600073ffffffffffffffffffffffffffffffffffffffff82169050919050565b6000610f4482610f19565b9050919050565b610f5481610f39565b82525050565b6000602082019050610f6f6000830184610f4b565b92915050565b610f7e81610f39565b8114610f8957600080fd5b50565b600081359050610f9b81610f75565b92915050565b600060208284031215610fb757610fb6610d51565b5b6000610fc584828501610f8c565b91505092915050565b600081519050919050565b600082825260208201905092915050565b60005b83811015611008578082015181840152602081019050610fed565b83811115611017576000848401525b50505050565b600061102882610fce565b6110328185610fd9565b9350611042818560208601610fea565b61104b81610d65565b840191505092915050565b60006040820190508181036000830152611070818561101d565b90508181036020830152611084818461101d565b90509392505050565b7f4e487b7100000000000000000000000000000000000000000000000000000000600052601160045260246000fd5b60006110c782610d13565b91506110d283610d13565b9250828210156110e5576110e461108d565b5b828203905092915050565b600081905092915050565b600061110682610fce565b61111081856110f0565b9350611120818560208601610fea565b80840191505092915050565b600061113882846110fb565b915081905092915050565b7f53796c6865740000000000000000000000000000000000000000000000000000600082015250565b60006111796006836110f0565b915061118482611143565b600682019050919050565b600061119a8261116c565b9150819050919050565b7f436869747461676f6e6720536f75746800000000000000000000000000000000600082015250565b60006111da6010836110f0565b91506111e5826111a4565b601082019050919050565b60006111fb826111cd565b9150819050919050565b7f436869747461676f6e67204e6f72746800000000000000000000000000000000600082015250565b600061123b6010836110f0565b915061124682611205565b601082019050919050565b600061125c8261122e565b9150819050919050565b600061127182610d13565b915061127c83610d13565b9250827fffffffffffffffffffffffffffffffffffffffffffffffffffffffffffffffff038211156112b1576112b061108d565b5b828201905092915050565b7f4e487b7100000000000000000000000000000000000000000000000000000000600052602260045260246000fd5b6000600282049050600182168061130357607f821691505b602082108103611316576113156112bc565b5b50919050565b600061132782610d13565b91507fffffffffffffffffffffffffffffffffffffffffffffffffffffffffffffffff82036113595761135861108d565b5b60018201905091905056fea2646970667358221220a558c81587c59042c53b257f7471b3194517691f4fec1645e25f99223e56d12f64736f6c634300080d0033",
  "immutableReferences": {},
  "source": "// SPDX-License-Identifier: MIT\r\n\r\npragma solidity >=0.4.22 <0.9.0;\r\n\r\ncontract Fundraiser {\r\n    error ERROR__Donor__Not__Registered();\r\n    error ERROR__COLLECTOR__CANT__BE__A__DONATOR();\r\n    error ERROR__NOT__ENOUGH__SENT__VALUE();\r\n    error ERROR__NOT__ENOUGH__BALANCE();\r\n    error ERROR__INVALID__FUND__ZONE();\r\n\r\n    address public sylhetCollector = 0x1375b15E8960F6BE79a4204ddfC1cB3BD5d00d09;\r\n    address public chittagongSouthCollector = 0x090920cD992E1F349ea00bbf59e9d11Eea492494;\r\n    address public chittagongNorthCollector = 0xC23396C0648Ec35ab16EfBA2Fd2aA0B839966556;\r\n    uint256 public accountNo = 0;\r\n\r\n    uint256 private sylhetCollectorBalance_initial = sylhetCollector.balance;\r\n    uint256 private chittagongSouthCollectorBalance_initial = chittagongSouthCollector.balance;\r\n    uint256 private chittagongNorthCollectorBalance_initial = chittagongNorthCollector.balance;\r\n\r\n    struct Donor {\r\n        uint256 donorAccountNo;\r\n        string name;\r\n        string mobileNum;\r\n    }\r\n\r\n    mapping(string => Donor) private donors;\r\n    mapping(address => Donor) private donorsAddress;\r\n\r\n    function registerDonor(\r\n        string memory _name,\r\n        string memory _mobileNum\r\n    ) public {\r\n        if (\r\n            msg.sender != chittagongSouthCollector &&\r\n            msg.sender != chittagongNorthCollector &&\r\n            msg.sender != sylhetCollector\r\n        ) {\r\n            Donor memory newDonor;\r\n\r\n            newDonor.name = _name;\r\n            newDonor.mobileNum = _mobileNum;\r\n            accountNo++;\r\n            newDonor.donorAccountNo = accountNo;\r\n            donors[newDonor.mobileNum] = newDonor;\r\n            donorsAddress[msg.sender] = newDonor;\r\n        } else {\r\n            revert ERROR__COLLECTOR__CANT__BE__A__DONATOR();\r\n        }\r\n    }\r\n\r\n    function donate(\r\n        string memory _mobile,\r\n        string memory _fundZone\r\n    ) public payable {\r\n        if (donors[_mobile].donorAccountNo > 0) {\r\n            if (msg.value > 0) {\r\n                if (msg.sender.balance > 0) {\r\n                    if (\r\n                        keccak256(abi.encodePacked(_fundZone)) ==\r\n                        keccak256(abi.encodePacked(\"Sylhet\"))\r\n                    ) {\r\n                        payable(sylhetCollector).transfer(msg.value);\r\n                    } else if (\r\n                        keccak256(abi.encodePacked(_fundZone)) ==\r\n                        keccak256(abi.encodePacked(\"Chittagong South\"))\r\n                    ) {\r\n                        payable(chittagongSouthCollector).transfer(msg.value);\r\n                    } else if (\r\n                        keccak256(abi.encodePacked(_fundZone)) ==\r\n                        keccak256(abi.encodePacked(\"Chittagong North\"))\r\n                    ) {\r\n                        payable(chittagongNorthCollector).transfer(msg.value);\r\n                    } else {\r\n                        revert ERROR__INVALID__FUND__ZONE();\r\n                    }\r\n                } else {\r\n                    revert ERROR__NOT__ENOUGH__BALANCE();\r\n                }\r\n            } else {\r\n                revert ERROR__NOT__ENOUGH__SENT__VALUE();\r\n            }\r\n        } else {\r\n            revert ERROR__Donor__Not__Registered();\r\n        }\r\n    }\r\n\r\n    function getDonor(\r\n        address _add\r\n    ) public view returns (string memory, string memory) {\r\n        return (donorsAddress[_add].name, donorsAddress[_add].mobileNum);\r\n    }\r\n\r\n    function getDonationAmountSylhet() public view returns (uint256) {\r\n        return (sylhetCollector.balance - sylhetCollectorBalance_initial);\r\n    }\r\n\r\n    function getDonationAmountChittagongSouth() public view returns (uint256) {\r\n        return (chittagongSouthCollector.balance - chittagongSouthCollectorBalance_initial);\r\n    }\r\n\r\n    function getDonationAmountChittagongNorth() public view returns (uint256) {\r\n        return (chittagongNorthCollector.balance - chittagongNorthCollectorBalance_initial);\r\n    }\r\n\r\n    function getTotalDonation() public view returns (uint256) {\r\n        return\r\n            (sylhetCollector.balance +\r\n            chittagongSouthCollector.balance +\r\n            chittagongNorthCollector.balance -\r\n            sylhetCollectorBalance_initial -\r\n            chittagongSouthCollectorBalance_initial -\r\n            chittagongNorthCollectorBalance_initial);\r\n    }\r\n}\r\n",
  "sourcePath": "C:\\Users\\Ahammod Munim Ramil\\Desktop\\Cse 446\\contracts\\Fundraiser.sol",
  "compiler": {
    "name": "solc",
    "version": "0.8.13+commit.abaa5c0e.Emscripten.clang"
  },
  "schemaVersion": "3.4.16",
  "updatedAt": "2024-09-13T17:28:51.721Z",
  "networkType": "ethereum",
  "devdoc": {
    "kind": "dev",
    "methods": {},
    "version": 1
  },
  "userdoc": {
    "kind": "user",
    "methods": {},
    "version": 1
  }
}